:020000040800F2
:10000000B827002075020008072400086B1E0008AE
:1000100005240008951A0008453200080000000079
:10002000000000000000000000000000E5280008BB
:10003000811C000800000000ED2700087D2A000850
:100040008F0200088F0200088F0200088F0200084C
:100050008F0200088F0200088F0200088F0200083C
:100060008F0200088F0200088F0200088F0200082C
:100070008F0200088F0200088F0200088F0200081C
:100080008F0200088F0200088F0200088F0200080C
:100090008F0200088F0200088F0200088F020008FC
:1000A0008F0200088F0200088F0200088F020008EC
:1000B000472B00085D2C0008B92C00088F020008AF
:1000C0008F0200088F0200088F0200088F020008CC
:1000D0008F0200088F020008393000088F020008E4
:1000E0008F0200088F0200088F02000800F002F85B
:1000F00000F0B0F80AA090E8000C82448344AAF112
:100100000107DA4501D100F0A5F8AFF2090EBAE80F
:100110000F0013F0010F18BFFB1A43F0010318473B
:1001200040460000604600000A444FF0000C10F802
:10013000013B13F0070408BF10F8014B1D1108BF65
:1001400010F8015B641E05D010F8016B641E01F805
:10015000016BF9D113F0080F1EBF10F8014BAD1C55
:100160000C1B09D16D1E58BF01F801CBFAD505E073
:1001700014F8016B01F8016B6D1EF9D59142D6D3CD
:10018000704700000023002400250026103A28BFF5
:1001900078C1FBD8520728BF30C148BF0B607047F9
:1001A0006E2900F03583702900F08D84662903F0F4
:1001B0005587652903F05287672903F04F87612926
:1001C000AFF3008003681B0A28BF41F08001692952
:1001D00000F0C480642900F0C180752900F0BE8061
:1001E0006F2900F01A84782900F05984E92900F079
:1001F000B583E42900F0B283F52900F0AF83EF293D
:1002000000F01784F82900F058840368DB0928BF40
:1002100041F08001632900F03683732900F03B83AD
:10022000E32900F01287F32900F0178700207047B8
:100230001FB500F063FF04000020002103F0F8FE6A
:10024000401C60600020002103F0DCFEE0601FBD68
:1002500010B510BD00F025FF1146FFF7E9FF03F0D0
:10026000EFFB01F001F803B4FFF7F2FF03BC03F06A
:10027000E6FB00000948804709480047FEE7FEE723
:10028000FEE7FEE7FEE7FEE7FEE7FEE7FEE7FEE746
:1002900004480549054A064B70470000812A0008BA
:1002A000ED000008B8210020B8270020B823002066
:1002B000B8230020704700001CB50C46064B7B4459
:1002C00069460090204600F0BCFA044600206946CA
:1002D00000F0CAFA20461CBDA70500000FB41CB5EB
:1002E000084B06AA7B4469460090059800F0A9FADD
:1002F00004460020694600F0B7FA20461CBC5DF8B1
:1003000014FB00008105000070B50C460546012A6B
:1003100005D02878800600D5EA69002302E0012391
:1003200005E05B1C934202D2E05C0028F9D1A86989
:10033000E618C01AA861286A18442862284600F006
:10034000D5F904E0D5E9012114F8010B9047B44236
:10035000F8D3284600F0E0F970BD00002DE9F04127
:100360000646002410687529314616A510D000F005
:10037000E4F9002802DA404213A507E031688A0751
:1003800001D512A502E0490704D511A5012401E019
:1003900000F0DCF900210A2206F1240709E0B0FB95
:1003A000F2FCB0FBF2F302FB1C003030785418462C
:1003B000491C0028F3D123462A463046BDE8F041C7
:1003C00000F0CDB9000000002D0000002B0000005F
:1003D000200000002DE9F05F894604464FF0000A36
:1003E000DFF874B1FB44C0F820A02046E1688847DC
:1003F000002874D0252806D0D4E901219047206A2E
:10040000401C2062F1E700265F462046E1688847ED
:100410002028054607DB312D05D2781910F8200C6D
:1004200008B10643F1E7B00701D526F00406C4F889
:100430001CA00027C4F818A02A2D09D0284603F0D4
:10044000F7FA38B304EB8708303DC8F8185019E0C4
:1004500059F8041B204604EB87029161E168884744
:10046000012F054618D1E069002820DA26F0200681
:100470001DE0D8F8180000EB800005EB4000303894
:10048000C8F818002046E1688847054603F0D0FA0E
:100490000028EED1012F0AD02E2D08D12046E16888
:1004A00088477F1C0546022F46F02006C4DBA06962
:1004B000002803DA404246F00106A061F00701D0AF
:1004C00026F010066C2D0BD0682D09D04C2D39D09C
:1004D0006A2D35D0742D35D07A2D33D016E038E022
:1004E000E1682F4620468847B842054609D16C2F5F
:1004F00026D04FF48060E1680643204688470546D1
:1005000004E06C2F1AD04FF4807006430DB3A5F1B0
:100510004100192802D8203546F400664A4629468B
:10052000204626604E46FFF73BFE80B101280BD0E7
:10053000F61D26F0070000F1080956E74020E4E721
:100540008020D8E70020D6E706F104094DE72846C9
:1005500052E7206ABDE8F09F6842000030B50546CA
:100560000B462A4613F8014B12F8010B08B1A042C2
:10057000F8D01CB1002802D06D1CF1E7284630BD30
:1005800040EA010310B59B070FD1042A0DD310C810
:1005900008C9121F9C42F8D020BA19BA884201D962
:1005A000012010BD4FF0FF3010BD1AB1D30703D0AA
:1005B000521C07E0002010BD10F8013B11F8014B60
:1005C0001B1B07D110F8013B11F8014B1B1B01D17C
:1005D000921EF1D1184610BD10B5431C02E010F870
:1005E000011B71B18107FAD14FF0013202C88C1A98
:1005F0008C4314EAC211F9D0C01A0A0603D0C01EF7
:1006000010BDC01A10BD0A0401D0801E10BD090221
:10061000FCD0401E10BD032A40F2308010F0030CC5
:1006200000F0158011F8013BBCF1020F624498BF45
:1006300011F801CB00F8013B38BF11F8013BA2F1E2
:10064000040298BF00F801CB38BF00F8013B11F05D
:10065000030300F04382083AC0F0088051F8043BDD
:10066000083A51F804CBA0E80810F5E7121D5CBF6A
:1006700051F8043B40F8043BAFF30080D20724BF9D
:1006800011F8013B11F801CB48BF11F8012B24BF31
:1006900000F8013B00F801CB48BF00F8012B704780
:1006A0004FF000020429C0F0128010F0030C00F09B
:1006B0004982CCF1040CBCF1020F18BF00F8012BE9
:1006C000A8BF20F8022BA1EB0C0100F03BBA5FEAB7
:1006D000C17C24BF00F8012B00F8012B48BF00F8B3
:1006E000012B7047704770477047704770B50446DC
:1006F00085690068C10601D5302600E02026C007C4
:1007000007D070BDD4E9012130469047206A401CD3
:1007100020626D1EF6D570BD70B5044685690078FF
:10072000C00707D170BDD4E9012120209047206A7D
:10073000401C20626D1EF6D570BD09684A0501D5C2
:1007400040B27047C905FCD500B2704709684A0538
:1007500001D5C0B27047C905FCD580B270472DE9FC
:10076000F0470D4699469246044600F12408016878
:10077000880604D5E06921F01001216000E0012025
:10078000A84201DD471B00E00027A1697A1902EBAE
:100790000900081AA0612078C00602D42046FFF79D
:1007A000A5FF002608E0D4E901211AF806009047C9
:1007B000206A401C761C20624E45F4DB2078C0067F
:1007C0000AD52046FFF792FF06E0D4E90121302048
:1007D0009047206A401C2062381EA7F10107F4DC14
:1007E00007E0D4E9012118F805009047206A401C71
:1007F0002062281EA5F10105F3DC2046FFF78CFFDF
:100800002078000602D50220BDE8F0870120FBE732
:1008100011680268006A530501D508700AE0D30523
:1008200001D5088006E0130603D5C217C1E900020E
:1008300000E008600120704701694A1C02610878E5
:10084000704700B58FB0CDE9013100210591054910
:100850007944CDE9031011466846FFF7BBFD0FB0A0
:1008600000BD0000E5FFFFFF0A6802F8010B0A6007
:10087000704710B5436913B1AFF3008001E0FFF793
:1008800043FD012010BD127800F124010A700022FE
:100890004A700122EDE711684FF0FF32E9E70000EE
:1008A0002DE9FF5F15468A460446DFF8AC80F84420
:1008B0000027D8E900103E46CDE9001010E03AF8D4
:1008C00016106A4602A800F0CCFB411C07D0217824
:1008D000890603D5E269391891420DD80744761C80
:1008E0002078800602D5E069B84205DDAE42E6DB3D
:1008F0003AF816000028E2D1A069C01BA06120468A
:10090000FFF7F4FED8E90010CDE90010002017E051
:100910003AF818106A4602A800F0A3FBB0F1FF3FB6
:1009200081460BD000250DF1080B05E0D4E901212B
:100930001BF8050090476D1C4D45F7D308F10100E9
:10094000B0428046E4DB206A384420622046FFF74C
:10095000E3FEBDE8FF9F0000B23D00002DE9F0413D
:100960008046D21D22F007020025D2E90002F529B7
:1009700015A614D0011E72F1000106DA0023D0EB97
:10098000030063EB020211A608E0D8F800108B0701
:1009900001D50FA602E0490701D50EA60125114693
:1009A000002408F1240704E000F0F1F830323A5551
:1009B000641C50EA0102F7D12B46324621464046DC
:1009C000BDE8F041FFF7CBBE000000002D000000A5
:1009D0002B0000002000000030B4002100F12404AE
:1009E00008E002F00705D208303542EA4372DB081E
:1009F0006554491C52EA0305F3D10468002310A290
:100A0000250707D5A40600D421B1C46901230DA28E
:100A1000641EC46130BCFFF7A2BE10B50446214677
:100A20001068FFF793FE02462046BDE81040002301
:100A3000D2E7D21D22F00701D1E90023CCE7000064
:100A40000000000030000000F0B40D4601880905E8
:100A500002D5214C7C4402E01F4C7C440E34002122
:100A600000F1240608E002F00F071209E75D42EAF0
:100A700003721B097754491C52EA0307F3D1027829
:100A80000023120704D5702D06D009B102231134BA
:100A90002246F0BCFFF763BE01231034F8E770B5BF
:100AA00004460D4621461068FFF750FE02462946CF
:100AB0002046BDE870400023C6E7D21D22F00703A0
:100AC000D3E90023C0E70368126843F02003036002
:100AD0000823C3610023B7E7143C000010B5203A97
:100AE000C0F00B80B1E81850203AA0E81850B1E8E7
:100AF0001850A0E81850BFF4F5AF5FEA027C24BF9D
:100B0000B1E81850A0E8185044BF18C918C0BDE893
:100B100010405FEA827C24BF51F8043B40F8043B5C
:100B200008BF7047D20728BF31F8023B48BF11F811
:100B3000012B28BF20F8023B48BF00F8012B70476B
:100B40004FF0000200B5134694469646203922BF66
:100B5000A0E80C50A0E80C50B1F12001BFF4F7AFB1
:100B6000090728BFA0E80C5048BF0CC05DF804EB93
:100B7000890028BF40F8042B08BF704748BF20F801
:100B8000022B11F0804F18BF00F8012B704730B5D1
:100B9000B0F10A024FEA900E71F100034EEA817E35
:100BA000B0EB0E0061EB91014FEA101E4EEA017EA0
:100BB00010EB0E0041EB11114FEA102E4EEA016EC0
:100BC00010EB0E0041EB11214FEA104E4EEA014EA0
:100BD00010EB0E0041EB1141401841F100014FEACA
:100BE000D00040EA41704FEAD10110EB80054FEA96
:100BF000810444EA907444EB01046D1944EB04044D
:100C0000521BA3414FF0000348BF0A3200D530BD4C
:100C1000401C41F1000130BD70472DE9FF4F0C46EB
:100C20001E464FF0FF378BB0D2E90001DDF860803F
:100C30000A908A46C1F30A5505B93D460021084687
:100C40004FF00000BAF1000F00F4400005DA00EBAD
:100C500080004FF4400101EA50004FEA9059B9F189
:100C6000010F00DDB9460A9850EA4A000ED044F65A
:100C70001050A5F2FF3545432F14B8F1000F1ED0D8
:100C80007542291E1EDDC9F100021CE0B8F1010FFA
:100C90004FF0000001D0302103E0F24305E0215481
:100CA000401CB042FBDB30460022002121540B994E
:100CB000C1F80880C1E900200FB0BDE8F08FBD1B6E
:100CC0006D1CDEE74A4600DA694206A800F05AFACF
:100CD00006AB93E8070003AB83E8070050460A9988
:100CE00000F010FB8DE80700A0F500501F380090C1
:100CF0000398002D0ADD42F21F014A4608440023F2
:100D000003A90390684600F079FD09E0A0F50050C2
:100D10004A461F38002303A90390684600F083FD6C
:100D20008DE807000004000C03D04FF0FF304108AD
:100D300000E01046B8F1000F03D0002200921546E3
:100D40001EE0751E05D4FFF722FF303262556D1E7E
:100D5000F9D5B3460122084302D000227F1C04E0EB
:100D60002078302801D100227F1E002A099784D0E4
:100D70001DE0112D07DAFFF70AFF303262556D1CB6
:100D800050EA0102F5D1084302D00098C8B10EE044
:100D90000021681E05E0235C625C63542254401EFF
:100DA000491C8142F7DBAB46A81B401E099000207E
:100DB00004F80B000B98099AC0F80880C0E9002BD2
:100DC0007AE711264FF0000857E72DE9F04F8846E3
:100DD0000446D21D22F0070191B0D1E90001CDE90E
:100DE0000A0102F011FE02460B98C00F01D02D201F
:100DF00007E02068810701D52B2002E0202101EACD
:100E0000C000032A099001D0072A05DB03464146AA
:100E1000204600F077F90BE12078800601D5E069E3
:100E200000E00620B8F1650F814606D0B8F1660FE4
:100E300018D0B8F1670F70D131E00020B9F1110F6F
:100E4000009001DB112301E009F101030AAA01A9C5
:100E50000CA8FFF7E2FEDDE90C70002609F10105A0
:100E6000834647E001204B4600904FF000470AAA16
:100E700001A90CA8FFF7D1FEDDE90DB00C995D4684
:100E8000002610B909F101000D18B9EB050003D4D3
:100E9000C0F1FF3609F10105A5EB09002BE0B9F11E
:100EA000010F01DA4FF001090020B9F1110F009094
:100EB000484601DD112300E003460AAA01A90CA857
:100EC000FFF7ABFEDDE90C704D4600268346207827
:100ED00000070AD4AB4500DA5D4601A8012D04DD08
:100EE000411911F8011C302907D04F4502DA17F1DA
:100EF000040F04DA012082460FE06D1EEEE7002F9A
:100F000002DCED1B3E4403E0781CA84200DD7D1CA2
:100F1000B81B00F1010A4FF000472078000703D406
:100F2000AA4501DB4FF0FF3A0021B7F1004F0DF168
:100F300043088DF8431024D002202B23002F01DA20
:100F40007F422D230A21021EA0F1010000DC5FB1C7
:100F500097FBF1FC97FBF1F201FB1C7C17460CF1AF
:100F6000300C08F801CDEEE7A8F1010003702188EC
:100F7000090501D5452100E06521A0F1010800F82F
:100F8000011C09980FA9A1EB0807FF1D00B1012062
:100F9000411901EBEA70A1693844081A401EA061AA
:100FA0002078C00602D42046FFF7A0FB099828B19C
:100FB000D4E901219047206A401C20622078C006B5
:100FC00022D52046FFF792FB1EE0002E04DBB3453E
:100FD00002DD01A8805D00E03020D4E901219047C6
:100FE000206A401C2062761CAAF101005FEA000A18
:100FF0000AD100F083F8C0680168405CD4E901219F
:101000009047206A401C2062281EA5F10105DCDC07
:1010100007E0D4E9012118F8010B9047206A401C31
:101020002062381EA7F10107F3DC2046FFF774FBAE
:10103000032011B041E610B5436913B1AFF300804E
:1010400001E0FFF72DFC012010BD128800F1240102
:1010500082840022C2840122EDE711684FF0FF3242
:10106000E9E770B516460C46054600F03FF8036800
:1010700093F80101012806D0FF2C0FD8185D68B144
:1010800001202C7070BDD3F807013246214603F2CF
:10109000071303442846BDE8704018474FF0FF305F
:1010A00070BD754600F0EAF8AE4605006946534645
:1010B00020F00700854618B020B5FFF7E9F8BDE835
:1010C00020404FF000064FF000074FF000084FF0AF
:1010D000000B21F00701AC46ACE8C009ACE8C00940
:1010E000ACE8C009ACE8C0098D46704710B500F007
:1010F00005F8001D10BD00BF392F000000487047E3
:10110000782100202DE9F0411F460446032601689E
:10111000072A01F4006004DB08B116A505E016A556
:1011200003E008B115A500E015A521F0100020602E
:10113000A069C01EA0610FB1401EA0612046FFF74C
:10114000D5FA4FB1D4E9012138469047206A401CB6
:101150002062C01C206206E0206AFAE7D4E901217F
:1011600015F8010B9047761EF8D22046FFF7D4FA07
:10117000BDE8F0814E414E006E616E00494E460062
:10118000696E66002DE9F047814616468AB03548FB
:1011900078440DC88DE80D0032487844801C03ACBB
:1011A0000DC884E80D0041F69B300844372190FBC0
:1011B000F1F290FBF1F5A5F1800501FB12041B3C57
:1011C00002D56442012000E00020DFF898A08046AC
:1011D0000027FA44AAF1BE0A0EE0E0070AD0324620
:1011E000684607EB470101230AEB810100F01BFB76
:1011F0008DE8070064107F1C002CEED1194F7F444E
:10120000AE3F19E0E80715D007EB04100DF1180AFE
:1012100090E80E008AE80E00C068F04201D19819EB
:1012200008903246012306A903A800F0FCFA03AB9C
:1012300083E807006D10641C002DE3D14FF001031B
:1012400032466946B8F1000F03A802D000F0D6FA82
:1012500001E000F0E8FAC9E90001C9F808200AB085
:10126000BDE8F0877C35000010B50446AFF3008080
:101270002046BDE81040FEF7F6BF0000004870476A
:10128000582100204FF0013C50F8042B51F8043B4A
:101290009A4221D1A2EB0C03934313EACC1317D14A
:1012A00050F8042B51F8043B9A4215D1A2EB0C03E1
:1012B000934313EACC130BD150F8042B51F8043BA1
:1012C0009A4209D1A2EB0C03934313EACC13DBD06F
:1012D0004FF00000704700BFD01A01BAB1FA81F197
:1012E00001F0180122FA01F0CB40C1F12001DBB27C
:1012F000C0B2C01A2CFA01F3D11A914311EAC311FA
:10130000E6D170475FEA400C08BF91F0000F4FEA4A
:101310008C234FEAC12243EA51514FEA1C5018BFB7
:1013200000F5F0404FEA300018BF41F000415FEA9D
:101330006C5C00F02980BCF1FF3F08BF40F08040AA
:101340007047130C06BF12044FF0100C4FF0000C46
:10135000130E04BF12020CF1080C130F04BF12018C
:101360000CF1040C930F04BF92000CF1020CD30F8C
:1013700004BF52000CF1010C11464FF00002A0F125
:101380001F00A0EB0C00704711F0004F08BF704722
:1013900031F000413FF4D5AF0B0C06BF09044FF00C
:1013A000100C4FF0000C0B0E04BF09020CF1080CDE
:1013B0000B0F04BF09010CF1040C8B0F04BF890053
:1013C0000CF1020CCB0F04BF49000CF1010CCCF165
:1013D0002003A0EB0C0022FA03F302FA0CF241EA1C
:1013E000030100F10100704720F07F4C80EA030008
:1013F00023F07F47ACEB070303F57C5300F000407C
:1014000003F1FF032DE980494FEA154B09B44FEA78
:10141000144325EA0B4E24EA03480FF2042606EB98
:10142000132749083E785FEA320203FB0667C7F5D7
:10143000000707FB06F64FEA54374FEAD64606F197
:10144000020607FB066CCCF1005C4FEA1C472CEA55
:10145000074C07FB06F40CFB06F504EB15464FEAB8
:10146000961634BF00204FF000404FEAD13706FBFC
:1014700007FC4FEA1C4C0CFB0BF7D21B03FB0CF7D1
:1014800061EB07010CFB0EF7B0EB074072EB174264
:101490000CFB08F734BFA2EB0742B2EB074261EB4B
:1014A00017414FEA0C444FEA910706FB07FC4FEA4D
:1014B0001C4C0CFB0BF7B0EBC74072EB573203FB35
:1014C0000CF734BFA2EBC742B2EBC74261EB573116
:1014D0000CFB0EF7B0EBC70072EB57720CFB08F772
:1014E00034BFA2EBC702B2EBC70261EB5771039F97
:1014F0004FEA816141EA921104EBCC044FEAD13703
:101500004FEA826206FB07FC42EA90124FEA8060D3
:101510004FEA1C4C0CFB0BF7D21B03FB0CF761EBE7
:1015200007010CFB0EF7B0EB074072EB17420CFB08
:1015300008F734BFA2EB0742B2EB074261EB174159
:101540004FEA8C554FEA910704EB9C2406FB07FCFD
:101550004FEA1C4C0CFB0BF7B0EBC74072EB573259
:1015600003FB0CF734BFA2EBC742B2EBC74261EBFF
:1015700057310CFB0EF7B0EBC70072EB57720CFB48
:1015800008F734BFA2EBC702B2EBC70261EB577199
:1015900015EB4C254FEA816141EA92114FEA8262D4
:1015A0004FEAD13742EA901206FB07FC44F10004EF
:1015B0004FEA80604FEA1C4C0CFB0BF7D21B03FB7D
:1015C0000CF761EB07010CFB0EF7B0EB074072EB79
:1015D00017420CFB08F734BFA2EB0742B2EB0742FD
:1015E00061EB174115EB1C154FEA813141EA92413D
:1015F0004FEA823242EA90424FEA80304FEA0C765C
:1016000044F1000448EA03434EEA0B484FF0000E51
:10161000B2EB080C71EB030724BF624639464EEB70
:101620000E0E4FF0000B0018524149414BEB0B0BD3
:10163000B2EB080C71EB03077BF1000B24BF624691
:1016400039464EEB0E0E4FF0000B00185241494147
:101650004BEB0B0BB2EB080C71EB03077BF1000BB0
:1016600024BF624639464EEB0E0E51EA020718BF00
:1016700046F0010616EB0E7655F1000254F100011A
:1016800003D5BDE88901BDE80088BDE88901BDE852
:101690000048B619524141EB0101A3F10103704723
:1016A00080807F7E7D7C7B7A79787776767574739F
:1016B000727171706F6E6E6D6C6C6B6A6A6968685E
:1016C000676666656464636362616160605F5F5EF4
:1016D0005E5D5D5C5C5B5B5A5A595958585757566A
:1016E00056555555545453535252525151505050CF
:1016F0004F4F4F4E4E4D4D4D4C4C4C4B4B4B4A4A21
:101700004A49494948484847474747464646454564
:10171000454444444443434343424242424141419D
:10172000002B9C4630D477002BD01CB54FEA3707EE
:1017300003B44FF010004FF01001BAF1000F06D0C3
:10174000BCF1000FDCBF40F0080040F008014FF092
:1017500000000FBCBDE810400BF1010BBBF1010F05
:1017600008BF5FEA170722BF12F1010211F1010160
:101770004FF0004143F1000300F0004043EA000055
:101780007047F9D35708D0E746EA064613F1400FF1
:101790004FEA16461FDD13F1200FDFBF16430A463E
:1017A000002120335B42BED0C3F1200746EA064643
:1017B00002FA07F74FEA164646EA0706C3F1200782
:1017C00022FA03F201FA07F721FA03F14FF00003BE
:1017D00042EA0702A7E746EA020646EA06464FEA59
:1017E000164646EA0106BCBF46EA0646360C4FF0EE
:1017F00000034FF000024FF0000194E72DE9804C08
:101800009A46934670B491E8380007C831EA400C14
:1018100048BF34EA430C03D5FFF7E6FDFFF780FF2E
:10182000F0BCBDE8008C2DE9804C9A46934670B41C
:1018300091E8380007C810F0804F08BF13F0804FC0
:1018400003D100F005F8FFF76BFFF0BCBDE8008C9A
:1018500020F07F4780EA030023F07F4C07EB0C0366
:10186000A3F57C5300F00040A3F1FE0392F0000FBB
:1018700000F0B38095F0000F00F077802DE901496A
:101880004FEA11404FEA144621EA004800FB06FCEB
:1018900024EA064708FB06F607FB08F800FB07F7F3
:1018A00018EB06484CEB164C4FEA124B18EB074866
:1018B0004FEA15464CEB174022EA0B4E0BFB06FC99
:1018C00025EA06470EFB06F607FB0EFE0BFB07F7A5
:1018D0001EEB064E4CEB164C4FF000061EEB074E6F
:1018E0004CEB174B18EB0B0840F1000018EB0E0BFC
:1018F00058EB000840F100008F1A4FF000013CBF88
:10190000C943661B14BFB5EB040C00213CBFC9439F
:10191000F61B4FEA17444EEA8E0E27EA04454FEABB
:101920001C4704FB07622CEA074C05FB07F70CFB7E
:1019300005F604FB0CFC16EB074642EB174216EBD0
:101940000C4642EB1C421BEB060658EB02024141DF
:1019500046EA9E0601D5BDE80189B619524141EB20
:101960000101A3F10103BDE801894FEA14454FEAE3
:10197000114724EA054621EA074C05FB07F406FB5C
:1019800007F70CFB06F105FB0CFC11EB074144EBE0
:1019900017444FEA124711EB0C4144EB1C4422EA76
:1019A000074C05FB07F206FB07F70CFB06F605FBE9
:1019B0000CFC16EB074642EB174216EB0C4642EBCB
:1019C0001C456A1854F1000148BF7047B6195241CE
:1019D00041EB0101A3F10103704795F0000F37D0EF
:1019E0004FEA11424FEA144721EA024624EA074C23
:1019F00002FB07F106FB07F70CFB06F402FB0CFCED
:101A000014EB074441EB17414FEA154714EB0C4424
:101A100041EB1C4125EA074C02FB07F506FB07F7E3
:101A20000CFB06F602FB0CFC16EB074645EB1745D4
:101A300016EB0C4645EB1C42121951F1000148BF50
:101A40007047B619524141EB0101A3F10103704700
:101A50004FEA14454FEA114724EA054621EA074CAC
:101A600005FB07F106FB07F70CFB06F24FF000063B
:101A700005FB0CFC12EB074241EB174112EB0C4249
:101A800051EB1C4148BF7047921841EB0101A3F193
:101A9000010370477047000070B50E4D0C460A46B2
:101AA0000146E869801CFEF7B6FDE01704EB106103
:101AB000E8690A0A214602704170021900219170FA
:101AC00000F59670E861696A884201D10248E861D0
:101AD00070BD00003C000020E80E002070B5194DDC
:101AE0000024286820F470002860286840F4000072
:101AF000286004E0641CE4B2012000F0DDF820213D
:101B0000284600F09BF9012803D0462C04D301207D
:101B100070BD462CEED3FAE7002404E0641CE4B266
:101B2000012000F0C9F82021284600F087F918B1FB
:101B3000462C04D3022070BD462CEFD3FAE70020D8
:101B400070BD00000008014008B50121042000F02C
:101B500067FE2020ADF8000003208DF80200102061
:101B60008DF803006946044800F01AF900F06AF89D
:101B7000FFF7B4FF08BD00000008014070B5002465
:101B8000134D04E0641CE4B2012000F095F820211C
:101B9000284600F053F9012801D1282CF2D3002463
:101BA00004E0641CE4B2012000F086F820212846FD
:101BB00000F044F908B93C2CF3D3232000F07CF862
:101BC0002021284600F03AF9002800D0012070BDFD
:101BD0000008014070B5002004464006050EFFF7DE
:101BE000CDFF641C2843E4B2082CF6D370BD2DE968
:101BF000FC410E46074600F025F8FFF76FFF10B1D5
:101C00000220BDE8FC8100246D46FFF7E3FF285564
:101C1000641CE4B2052CF8D39DF800009DF8011077
:101C20009DF8033042189DF802100B441A449DF8A9
:101C300004309A4203D1307039700020E1E701206E
:101C4000DFE7000010B50D4C206820F47000206024
:101C5000206840F44010206000222021204600F03F
:101C6000FFF81E2000F00EF801222021204600F08F
:101C7000F7F8BDE810401E2000F01EB80008014033
:101C8000704700000B49498848434FF0E021486104
:101C900000238B61086940F0010008610869C207F0
:101CA00001D0C003FAD5086920F0010008618B61FA
:101CB00070470000380000200B49097848434FF076
:101CC000E021486100238B61086940F00100086150
:101CD0000869C20701D0C003FAD5086920F00100E5
:101CE00008618B61704700003800002010B56FF06C
:101CF000040000F0B7FE094809490068B0FBF1F0A4
:101D00000849C0B200EB40020870C2EBC0104FF6A9
:101D1000FF7202EAC000488010BD000010000020E1
:101D200000127A0038000020002310B50CA21946DA
:101D3000184600F026FD00230DA20221184600F0EF
:101D400020FD00230EA20421184600F01AFD0023F6
:101D5000BDE810400EA20621184600F012BD00009A
:101D6000B5C6D7B4CCAC3A20CEB4BFAA00000000B0
:101D7000CEC2B6C83A202D2D2020B6C800000000E3
:101D8000CAAAB6C83A202D2D2020255248000000AE
:101D9000B7FECEF1C6F7D7B4CCACD2ECB3A30000FB
:101DA000F0B5CC78002204F00F03E40601D58C785E
:101DB00023430C784FF00F0C14F0FF0F4FF0010E7F
:101DC0001BD005680E880EFA02F42640A64210D1F8
:101DD00096000CFA06F725EA070703FA06F5CE780F
:101DE0003D43282E02D0482E02D002E0446100E09C
:101DF0000461521C082AE5D305600A88FF2A1CD911
:101E00004468002202F108060EFA06F50E882E40FC
:101E1000AE420ED196000CFA06F7BC4303FA06F761
:101E2000CE783C43282E00D14561CE78482E00D193
:101E30000561521C082AE5D34460F0BD024600202B
:101E400092680A4200D00120704702460020D26802
:101E50000A4200D00120704741617047016170471C
:101E60000AB10161704741617047704710B5094C74
:101E700001212046FFF7F2FF02212046FFF7EEFF87
:101E800002212046FFF7E8FF2046BDE8104001216F
:101E9000FFF7E2BF0008014010B5074C01212046C2
:101EA000FFF7DCFF02212046FFF7D6FF2046BDE802
:101EB00010400221FFF7D2BF0008014010B5054CC9
:101EC00001212046FFF7CAFF2046BDE8104001214E
:101ED000FFF7C2BF0008014010B580212548FEF77A
:101EE000DFFB25A22DA12348FEF7F8F92148FEF7D4
:101EF00073FB2B4C8021A0621E488030FEF7D0FB84
:101F00001C4828A225A18030FEF7E8F91948803046
:101F1000FEF762FBE06280212548FEF7C1FB21A2AB
:101F20001EA12348FEF7DAF92148FEF755FB20638E
:101F30001F4880218030FEF7B3FB1D481DA217A16A
:101F40008030FEF7CBF91A4942F21D5280311CA0B5
:101F5000626301F0F9FF07491EA001F0F5FF054992
:101F600020A0803101F0F0FFBDE81040104921A011
:101F700001F0EABFC4140020616635656162643512
:101F80003165376234383937623338333062383646
:101F900035316333326230350000000025730000B4
:101FA0003C000020696F745F686F6D650000000081
:101FB000C415002062656D66612E636F6D000000C0
:101FC000B7FE20CEF120C6F7A3BA25733A25640DDB
:101FD0000A000000BFCDBBA7B6CB4944A3BA257306
:101FE0000D0A0000D3C320BBA720C3FBA3BA2573EF
:101FF0000D0A0000C3DC20202020C2EBA3BA257309
:102000000D0A000010B54FF400510348FFF71DFF03
:10201000002800D0012010BD0010014008B50121AA
:10202000102000F0FDFB4FF40050ADF8000003203D
:102030008DF8020010208DF8030069460248FFF772
:10204000AFFE00F003F808BD001001404FF400514E
:102050000148FFF701BF0000001001404FF400519C
:102060000148FFF7FBBE00000010014010B5134C03
:1020700011486060A06000F59660E06000F5967021
:102080002061606100F59660A06100F59670E061E6
:10209000206200F59660606200F01CF8002108A044
:1020A00000F074F9002108A000F070F90020A07081
:1020B0006070207010BD0000300300203C00002044
:1020C0004C414D5030303200444854434F4E5452EE
:1020D0004F4C000070B53B4C01203B4DA0630A20E3
:1020E000E063D4E90A20216B10440144891D1020CB
:1020F000216428700A31C81701EB506323F07F0078
:10210000081AD911002901DD40F08000A36BE854C2
:1021100003F10103A363EEDC18464FF000012954DC
:1021200005EB03004FF0040646704FF04D0383703B
:102130004FF05103C3704FF0540303714371867124
:102140004FF0C203C37101724FF0640141724FEA54
:10215000E27102EB11614FEA112383721146C172E1
:102160001A4900F10C00FEF756FAE26AA66AD01787
:1021700002EB1061A06B0B0A304428441146037334
:10218000417312490E308031FEF745FA226BA66A80
:10219000D01702EB1061A06B0B0A3044E66A1146BF
:1021A000304428448373C17309491030FEF733FA71
:1021B000D4E90E010844216CBDE870400144024896
:1021C00000F01CBF3C000020C4160020C4140020F6
:1021D000C41500202DE9F04F417810F8022BCDB046
:1021E00001EB022200210D4601240746A94626469E
:1021F00009F101090819641C385C00F07F0303FB36
:102200000655F6010006F5D428194FF001040144E3
:10221000121A26464FF00005EAD1494622A001F0E5
:1022200093FE4FF00008404637E008EB0400641CC2
:10223000385C00F07F0101FB0655F6010006F4D47E
:1022400004EB0800C119385C497801EB0026A81B93
:10225000801E4B9008EB0400304400F1020BABEB06
:102260000600391832466846FEF7D5F907EB0B0130
:102270000DEB06004B9AFEF7CEF9694611A001F06E
:1022800063FE4B9831186846FFF706FC29190124B4
:102290008844264600250AF1010082464845C4DBF1
:1022A0004DB0BDE8F08F0000B1BEB4CEBDD3CAD5ED
:1022B000C1CB2564B8F6CDC6CBCDCAFDBEDD0D0AB7
:1022C00000000000CAD5B5BDC3FCC1EE25730D0AE0
:1022D000000000000348C02101700021417002216C
:1022E00000F08CBEC41600202DE9F041254C0746B5
:1022F0000120A063164688463846FEF76DF9801C1B
:10230000C4E90F06204D811930202870C81701EB51
:10231000506222F07F00081AD111002901DD40F03F
:102320008000A26BA85402F10102A263EEDC3846E1
:10233000FEF752F9A16B000A68543846FEF74CF9D3
:10234000A16B294448703846FEF746F90246A06B57
:1023500039462844801CFEF75EF93846FEF73CF902
:10236000A16B3246084428444146801CFEF753F9CD
:10237000D4E90E010844216CBDE8F0410144024853
:1023800000F03CBE3C000020C41600202DE9F041C6
:102390001A4D07460220A863E8630E463846FEF74A
:1023A0001BF9174CC01C82212864217095F83C1041
:1023B000084460700020A0700120E0703846FEF7ED
:1023C0000BF9000A20713846FEF706F960713846AD
:1023D000FEF702F902463946A01DFEF71CF9384601
:1023E000FEF7FAF820448671D5E90E010844296CFD
:1023F00001442046BDE8F04100F000BE3C00002052
:10240000C41600207047704730B50F23C27801789A
:102410000125F2B1144A126801F1E02102F4E062F0
:10242000C2F5E062120AC2F10404D3404278A2402D
:1024300084781C401443220181F80024007800F0C5
:102440001F018D404009800000F1E020C0F80051DC
:1024500030BD01F01F0085404809800000F1E020F8
:10246000C0F8805130BD00000CED00E00249084387
:1024700002490860704700000000FA050CED00E01A
:1024800070B50025002105F1B00000F0A9F9002188
:10249000084600F0A5F90021102000F0A1F9002461
:1024A0000121002000F09CF9641CE4B2802CF7D3D9
:1024B0006D1CEDB2082DE5D370BD0000F8B500200D
:1024C00000900121042000F0ABF90121042000F06C
:1024D000A7F90220ADF800001024434E8DF8034008
:1024E00003258DF8025069463046FFF759FC01205C
:1024F000ADF800008DF803408DF802506946304673
:10250000FFF74EFCC820FFF7BDFB0021AE2000F016
:1025100067F90021084600F063F90021102000F05F
:102520005FF90021402000F05BF90021B02000F0AD
:1025300057F90021812000F053F90021FF2000F01D
:102540004FF90021A12000F04BF90021A62000F056
:1025500047F90021A82000F043F900213F2000F0B6
:102560003FF90021C82000F03BF90021D32000F002
:1025700037F90021084600F033F90021D52000F09A
:102580002FF90021802000F02BF90021D82000F045
:1025900027F90021052000F023F90021D92000F0BF
:1025A0001FF90021F12000F01BF90021DA2000F0D2
:1025B00017F90021122000F013F90021DB2000F0B0
:1025C0000FF90021302000F00BF900218D2000F0E0
:1025D00007F90021142000F003F90021AF2000F0DA
:1025E000FFF8FFF74DFFF8BD0008014010B50A469F
:1025F0000446002102F1B00000F0F2F8102040EA99
:102600001410002100F0ECF804F00F00BDE81040B9
:10261000002100F0E5B800002DE9F05FDFF880A0B0
:102620001F469046894683460026C6EBC60000EB4F
:10263000800098F800201AF8003093422AD100EB6D
:102640000A0598F801006978814223D14946584625
:10265000FFF7CCFF002405EB0400C07807B1C043AE
:10266000012100F0BDF8641CE4B2102CF3D309F191
:102670000100C1B25846FFF7B9FF002405EB040082
:10268000C07C07B1C043012100F0AAF8641CE4B289
:10269000102CF3D3761CB6B2132EC6D3BDE8F09F30
:1026A000940000202DE9F047203A00241E46884679
:1026B0008146D5B27F2804D908F10200A14600F076
:1026C000FF0841464846FFF791FF124F04EB051003
:1026D000012E385C00D1C043012100F081F8641C58
:1026E000E4B2082CF2D308F10100C1B24846FFF76A
:1026F0007DFF002404EB05103844012E007A00D140
:10270000C043012100F06CF8641CE4B2082CF1D342
:10271000BDE8F087604000082DE9F05F0027DDF894
:1027200028A01D4691468B4680463C464FEA5A06F5
:1027300023E0281B401EC1B20A2001F0FDFBB9FBBB
:10274000F0F00A21B0FBF1F201FB120027B9691E7B
:102750008C4201DA38B101273030C2B206FB048066
:10276000C0B2534604E006FB0480C0B253462022A8
:102770005946FFF797FF641CE4B2AC42D9D3BDE8D9
:10278000F09FF8B5044600201F4616460D460090FF
:1027900022E010060DD58DF8002070788DF801002C
:1027A0003B466A4629462046B61CFFF735FF1034E3
:1027B00006E03B4629462046761CFFF773FF0834A7
:1027C0003078E4B2000602D5702C05D301E0782CF5
:1027D00002D3AD1CEDB200243278002AD9D1F8BD65
:1027E000C0B209B101F0F9B801F0E0B870470000DB
:1027F000044A0029D16901D0014300E08143D1613D
:102800007047000000100240044A0029116901D0FD
:10281000014300E081431161704700000010024055
:10282000044A0029916901D0014300E0814391618C
:102830007047000000100240044A0029D16801D00E
:10284000014300E08143D160704700000010024066
:1028500030B5204A5168204B11F00C0103D00429F7
:1028600001D0082901D0036012E05168536801F4D7
:1028700070114FF0020413F4803F04EB914102D039
:1028800053689B0301D5154B00E0134B594301607E
:1028900051680F2303EA1111114B5C5C0168E140A0
:1028A00041605468072505EA14241C5D21FA04F4EC
:1028B0008460546805EAD4241B5DD940C160526825
:1028C000032303EA9232064B1B1F9A5CB1FBF2F121
:1028D000016130BD0010024000127A0000093D0085
:1028E000280000207047000038B5054664212348C1
:1028F000FDF7D6FE224C35B3012D3DD12146481CB3
:10290000FFF775F9237862781EA11C48FDF7E6FCF5
:102910001A491EA001F018FB1025022300956278C9
:1029200019463020FFF7F8FE009502232278042193
:102930003020FFF7F1FE1148FDF74EFE02466060C1
:102940000E4914A014E0FFF75DFB08B114A200E0EB
:1029500014A215A10948FDF7C1FC0848FDF73CFE8B
:102960006060064909A001F0EFFA044962680FA00F
:10297000BDE83840FFF7B8BC38BD0000F0170020B4
:1029800084000020232564232564000025730D0A9C
:10299000000000004448543030342F736574000048
:1029A0006F6E00006F666600257300004C414D504D
:1029B0004D4F4E54494F522F757000000CB50022F8
:1029C000264800920192016841F4803101604FF481
:1029D000A063016801F4003101910099491C009144
:1029E000019911B900999942F3D10168890333D54E
:1029F000012101911A490A6842F010020A600A682E
:102A000022F003020A600A6842F002020A6041688A
:102A1000416041684160416841F4806141604168C2
:102A200021F47C114160416841F4E8114160016882
:102A300041F08071016001688901FCD5416821F095
:102A400003014160416841F0020141604168C1F306
:102A500081010229FAD10CBD01920CBD0010024087
:102A6000002002404FF0E0210428086903D020F044
:102A700004000861704740F00400FAE77047000066
:102A80000F4810B5016841F00101016041680D4A2D
:102A90001140416001680C4A11400160016821F455
:102AA00080210160416821F4FE0141604FF41F0163
:102AB0008160FFF783FF05494FF00060086010BD9B
:102AC000001002400000FFF8FFFFF6FE08ED00E0F6
:102AD0001FB54FF4A060FFF7C9FC01210846FFF7BE
:102AE00087FE4FF08044204600F06CF944F61F61E9
:102AF000ADF8041048F69F40ADF800000021ADF895
:102B00000210ADF806106946204600F029FA0121AE
:102B1000204600F049F901221146204600F016FA3D
:102B20000121204600F043F91C208DF80C00022002
:102B30008DF80D0001208DF80E008DF80F0003A810
:102B4000FFF762FC1FBD10B501218C07204600F085
:102B5000F1F9002808D00120FFF7C6FE2046BDE8A5
:102B60001040012100F020B910BD00007FB54FF4E6
:102B7000A060FFF77BFC01210220FFF739FE184D12
:102B8000284600F01FF944F61F60ADF8040041F636
:102B90001F40ADF800000024ADF80240ADF806403B
:102BA0006946284600F0DCF90121284600F0FCF8CF
:102BB00001221146284600F0C9F90121284600F0FB
:102BC000F6F81D208DF80C0001208DF80D008DF811
:102BD0000E408DF80F0003A8FFF716FC7FBD000024
:102BE000000400401FB54FF4A060FFF73FFC012137
:102BF0000220FFF7FDFD184C204600F0E3F84EF6EA
:102C00005F21ADF8041048F69F40ADF800000021A8
:102C1000ADF80210ADF806106946204600F0A0F9A4
:102C20000121204600F0C0F801221146204600F0A4
:102C30008DF90121204600F0BAF81D208DF80C0016
:102C400002208DF80D0001208DF80E008DF80F0088
:102C500003A8FFF7D9FB1FBD0004004070B5134D5A
:102C60000121284600F066F900281ED0104C20787B
:102C7000062811D2DFE800F0030603030309FFF77B
:102C800029FB09E0FFF772FFF9E70A490020087005
:102C90000146284600F08BF82078401C207028461A
:102CA000BDE87040012100F07FB870BD0004004015
:102CB0003C0000208000002070B5194E01213046F4
:102CC00000F038F900282AD0184C164D1649206813
:102CD0002A68801CFDF79FFC2888010A2068017083
:102CE00029784170124900F5967020600968884281
:102CF00001D1104820600020014628600E4800F0F5
:102D00002DF90021304600F052F80021304600F045
:102D100025F93046BDE87040012100F045B870BD8E
:102D200000080040900000205819002040000020BA
:102D30004800002030030020000400407FB5044616
:102D40000D464FF4A060FFF791FB01210420FFF72F
:102D50004FFDADF80440ADF800500024114DADF822
:102D60000240ADF806406946284600F0F9F8012116
:102D7000284600F019F801221146284600F0E6F82E
:102D80000021284600F013F81E208DF80C000120C9
:102D90008DF80D008DF80E408DF80F0003A8FFF799
:102DA00033FB7FBD00080040C94301827047002902
:102DB000018802D041F0010101E021F00101018010
:102DC000704700004B4910B5884202D10121C4145C
:102DD00086E0B0F1804F09D0474988420DD10121EA
:102DE0000220FFF711FD0021022064E001210846C6
:102DF000FFF70AFD002101205DE04049884206D12D
:102E000001210420FFF700FD0021042053E03C498C
:102E1000884206D101210820FFF7F6FC0021082096
:102E200049E03849884206D101211020FFF7ECFC27
:102E3000002110203FE03449884206D101212020A2
:102E4000FFF7E2FC0021202035E03049884202D122
:102E50000121441444E02E49884202D10121CC04CE
:102E60003EE02C49884202D101210C0538E02A4974
:102E7000884202D101214C0532E02849884206D11E
:102E800001214020FFF7C0FC0021402013E024492D
:102E9000884206D101218020FFF7B6FC0021802066
:102EA00009E0204988420AD1841501212046FFF714
:102EB000ABFC00212046BDE81040FFF7A5BC1A4935
:102EC000884202D101210C040AE01849884202D14B
:102ED00001214C0404E0164988420AD101218C04E6
:102EE0002046FFF7A9FC2046BDE810400021FFF76F
:102EF000A3BC10BD002C01400004004000080040AD
:102F0000000C00400010004000140040003401405C
:102F1000004C0140005001400054014000180040A6
:102F2000001C0040002000400040014000440140DF
:102F30000048014002460020138A92890B4202EAAF
:102F4000010202D0002A00D001207047002A8289A5
:102F500001D00A4300E08A43828170478184704730
:102F600030B502881B4C1C4DA0420DD0A8420BD09E
:102F7000B0F1804F08D0194B984205D0184B9842B9
:102F800002D0184B984203D122F070034A881A43AA
:102F9000154B984206D0154B984203D022F440734B
:102FA000CA881A4302808A8882850A880285A042DC
:102FB0000AD0A84208D00E4A904205D00D4A90424D
:102FC00002D00D4A904201D1097A01860121818205
:102FD00030BD0000002C01400034014000040040DE
:102FE00000080040000C00400010004000140040A9
:102FF00000400140004401400048014070B50C4DC4
:103000000C460A4601462869801CFDF704FBE017C0
:1030100004EB106128690A0A21460270417000F52C
:1030200096702861A969884201D10248286170BD63
:103030003C0000200C09002010B540F22551114839
:1030400000F072F8002811D00F48104A104C017897
:103050000C48001D59B10088216850540D4869B1D1
:103060000021FFF77BFF2068401C206010BD018815
:103070000029FBD0018820681154F5E70121FFF7F2
:1030800096FEF0E700440040800000205819002020
:103090009000002000080040C943018070470029CB
:1030A000818902D041F4005101E021F40051818175
:1030B00070470000174910B588420AD101218C03DE
:1030C0002046FFF7B9FB2046BDE810400021FFF77E
:1030D000B3BB1149884202D101214C0410E00F49D1
:1030E000884202D101218C040AE00D49884202D1B4
:1030F0000121CC0404E00B4988420AD101210C05CE
:103100002046FFF781FB2046BDE810400021FFF775
:103110007BBB10BD00380140004400400048004027
:10312000004C00400050004070B501F01F05012622
:103130000024C1F3421306FA05F2012B0FD0022B33
:103140000FD0838A4FEA11210088134206FA01F654
:1031500000EA060001D000B10124204670BD838939
:10316000F0E7038AEEE710B5C1F3421301F01F0444
:103170000121A140012B07D0022B07D01430002AD7
:10318000026805D00A4304E00C30F8E71030F6E797
:103190008A43026010BD000030B50446008A85B045
:1031A0000D464CF6FF710840E98801432182A08951
:1031B0004EF6F3110840A9882A8911436A8902430F
:1031C0001143A181A08A4FF6FF410840A98901431C
:1031D000A1826846FFF73CFB1948844201D103985D
:1031E00000E00298A189090400EBC00101EB001086
:1031F000296801D5490000E08900B0FBF1F06422A4
:10320000B0FBF2F109010B096FF018056B4300EBFD
:103210008300A3891D044FF0320306D503EBC000E1
:10322000B0FBF2F000F0070005E003EB0010B0FB8C
:10323000F2F000F00F000843208105B030BD00001F
:10324000003801407047000030B50446012185B0C8
:103250008803FFF7E5FA01210420FFF7E1FA4FF4B4
:103260000071ADF8101003218DF812101820144DC4
:103270008DF8130004A92846FEF792FD2915ADF834
:10328000101004208DF8130004A92846FEF788FDCD
:103290000020ADF804000094ADF80600ADF8080079
:1032A000ADF80C000820074CADF80A00694620462E
:1032B000FFF772FF01212046FFF7F1FE05B030BD98
:1032C0000008014000380140F0B5074687B04FF4D0
:1032D000A060FFF7CBF801214804FFF789FA01212C
:1032E0000420FFF79DFA244D2846FFF7E3FE04244F
:1032F000ADF8104003208DF8120018201F4E8DF8F5
:10330000130004A93046FEF74BFD0820ADF810006D
:103310008DF8134004A93046FEF742FD0024ADF8B5
:1033200008400C20ADF80440ADF80A000097ADF855
:103330000640ADF80C4069462846FFF72DFF2021D6
:103340002846FFF7A9FE012240F225512846FFF743
:103350000AFF26208DF814008DF815408DF81640D0
:1033600001208DF8170005A8FFF74EF80121284627
:10337000FFF795FE07B0F0BD004400400008014093
:1033800010B539A000F0E0FD322000F063FA20B162
:1033900039A000F0D9FD012010BD3DA000F0D4FD02
:1033A0003EA000F0D1FD322141A000F0A3FA20B1EF
:1033B00042A000F0C9FD022010BD47A000F0C4FDEE
:1033C0004A48007800281ED149A000F0BDFD3221F6
:1033D0004CA000F08FFA20B14EA000F0B5FD032004
:1033E00010BD54A000F0B0FD57A000F0ADFD1E20B0
:1033F00000F0E0F920B159A000F0A6FD042010BDB6
:103400005DA000F0A1FD61A000F09EFD322163A04F
:1034100000F070FA20B165A000F096FD082010BD04
:1034200069A000F091FD6CA000F08EFD32216FA02C
:1034300000F060FA20B170A000F086FD092010BDF8
:1034400075A000F081FD79A000F07EFD642000F001
:103450000FF920B17AA000F077FD0A2010BD7FA0FF
:1034600000F072FD002010BDD7BCB1B8B8B4CEBB1F
:10347000C4A3BFE90D0A0000B8B4CEBBCAA7B0DC34
:10348000A3ACD7BCB1B8D6D8C6F40D0A0000000072
:10349000B8B4CEBBB3C9B9A60D0A0000D7BCB1B849
:1034A000C9E8D6C3535441C4A3CABD0D0A000000E5
:1034B00041542B43574D4F44453D3100C9E8D6C3D5
:1034C000535441C4A3CABDCAA7B0DCA3ACD7BCB196
:1034D000B8D6D8C6F40D0A00C9E8D6C3535441C4BF
:1034E000A3CABDB3C9B9A60D0A0000008C00002014
:1034F000D7BCB1B8C8A1CFFBD7D4B6AFC1ACBDD390
:103500000D0A000041542B43574155544F434F4E31
:103510004E3D3000C8A1CFFBD7D4B6AFC1ACBDD3B0
:10352000CAA7B0DCA3ACD7BCB1B8D6D8C6F40D0AD4
:1035300000000000C8A1CFFBD7D4B6AFC1ACBDD34B
:10354000B3C9B9A60D0A0000D7BCB1B8C1ACBDD390
:10355000C2B7D3C9C6F70D0A00000000C1ACBDD385
:10356000C2B7D3C9C6F7CAA7B0DCA3ACD7BCB1B841
:10357000D6D8C6F40D0A0000C1ACBDD3C2B7D3C9BA
:10358000C6F7B3C9B9A60D0A00000000D7BCB1B890
:10359000C9E8D6C3CDB8B4AB0D0A000041542B43E3
:1035A00049504D4F44453D3100000000C9E8D6C3A5
:1035B000CDB8B4ABCAA7B0DCA3ACD7BCB1B8D6D831
:1035C000C6F40D0A00000000C9E8D6C3CDB8B4ABFC
:1035D000B3C9B9A60D0A0000D7BCB1B8B9D8B1D5E6
:1035E000B6E0C2B7C1ACBDD30D0A000041542B43B5
:1035F00049504D55583D3000B9D8B1D5B6E0C2B7A5
:10360000C1ACBDD3CAA7B0DCA3ACD7BCB1B8D6D8C7
:10361000C6F40D0A00000000B9D8B1D5B6E0C2B7B3
:10362000C1ACBDD3B3C9B9A60D0A0000D7BCB1B8AF
:10363000C1ACBDD3B7FECEF1C6F70D0A0000000045
:10364000C1ACBDD3B7FECEF1C6F7CAA7B0DCA3AC00
:10365000D7BCB1B8D6D8C6F40D0A0000C1ACBDD3F2
:10366000B7FECEF1C6F7B3C9B9A60D0A0000000037
:103670002DE9F0412A4E044600254FF48067394673
:1036800028483560FDF70CF827482849026828A02B
:1036900000F096FC1AE06420FEF7F4FA2BA1214812
:1036A000FCF75CFFA0B92BA11E48FCF757FF10B137
:1036B0000120BDE8F08129A11A48FCF74FFF08B1AD
:1036C0000220F6E721462AA000F03EFC641EE2D26A
:1036D00028A000F039FC002C01DC0320E9E726A03B
:1036E00000F032FC39460F483560FCF7D9FF2AA0BC
:1036F00000F066FC0FE06420FEF7C4FA2AA1094836
:10370000FCF72CFF18B1002C08DC0420D1E721467F
:1037100017A000F019FC641EEDD2F6E70020C8E700
:10372000900000205819002070000020441600204E
:1037300041542B43495053544152543D2254435019
:10374000222C222573222C25640D0A00434F4E4E55
:1037500045435400434C4F5345440000414C5245AF
:1037600041445920434F4E4E4543544544000000C8
:10377000256420000D0A0000C1ACBDD3B7FECEF118
:10378000C6F7B3C9B9A6A3ACD7BCB1B8BDF8C8EBEE
:10379000CDB8B4AB0D0A000041542B4349505345FA
:1037A0004E440D0A000000000D0A4F4B0D0A0D0A91
:1037B0003E00000070B516490446002008604FF432
:1037C00080611448FCF76CFF13A216A117A000F04B
:1037D000F7FB4FF47A750BE02846FEF753FA19A170
:1037E0000C48FCF7BBFE28B9214617A000F0ACFB43
:1037F000641EF1D2074915A000F0A6FB14A000F04A
:10380000A3FB002C01DC012070BD002070BD000076
:1038100090000020581900203132333435363738C3
:1038200000000000777574616F00000041542B4365
:10383000574A41503D222573222C222573220D0A1E
:10384000000000004F4B0000256420000D0A257386
:103850000D0A000070B5144D0446002210212846C0
:10386000FEF7FEFA4FF4FA70FEF70CFA012210216F
:103870002846FEF7F5FA0BE06420FEF703FA0BA1E9
:103880000C48FCF76BFE28B921460BA000F05CFB4E
:10389000641EF1D209A000F057FB002C01DC0120CE
:1038A00070BD002070BD00000008014072656164B9
:1038B0007900000058190020256420000D0A00003E
:1038C00038B501210420FEF7ABFF1020ADF8000051
:1038D00003218DF80210064C8DF80300694620463E
:1038E000FEF75EFA012210212046FEF7B9FA38BD34
:1038F0000008014070B5134A0C46002105461160CE
:103900004FF480611048FCF7CBFE29460FA000F071
:1039100057FB0BE06420FEF7B5F90EA10A48FCF74F
:103920001DFE28B921460CA000F00EFB641EF1D24A
:103930000AA000F009FB002C01DC012070BD002072
:1039400070BD0000900000205819002025730D0A5A
:10395000000000004F4B0000256420000D0A00000D
:1039600070B5114E044601213046FEF775FA002568
:1039700004F0800080284FF00201304610D0FEF79E
:103980006BFA6006040E01213046FEF767FA01214A
:103990003046FEF761FA6D1CEDB2082DE8D370BD1C
:1039A000FEF75CFAEDE700000008014010B50446A0
:1039B000FEF75CFA7820FFF7D3FFFEF77FFA0020CE
:1039C000FFF7CEFFFEF77AFA2046FFF7C9FFFEF7B2
:1039D00075FABDE81040FEF75FBA10B50446FEF771
:1039E00045FA7820FFF7BCFFFEF768FA4020FFF7A2
:1039F000B7FFFEF763FA2046FFF7B2FFFEF75EFA65
:103A0000BDE81040FEF748BA490050EAC12018BF8F
:103A100004204A0D18BF40F0010040F2FF72B2EBE3
:103A2000515F08BF40F00200012808BF0520704721
:103A300030380A2801D201207047002070477047B3
:103A4000FEF754F94FF4E1342046FFF7FDFB204622
:103A5000FFF73AFC21114FF4FA70FFF76FF9FEF708
:103A6000DDFAFEF771F8FEF729FDFEF75DF9FFF7C5
:103A700027FFFEF731FADFF85492DFF854A2DFF89F
:103A80005482002401274FF4806B934D4FF00003C4
:103A90002878012825D091A206210020FEF771FE8A
:103AA00092A000F051FA00219548FFF780F900211B
:103AB0009448FFF77CF9944E594694483460FCF7DB
:103AC000EFFDFFF75DFC0028DFD191A000F03CFA8C
:103AD0002F7059468D483460FCF7E2FDFEF7C6FAB8
:103AE000D3E790A206210020FEF74BFE914E9249AB
:103AF0003068096888421ED0817810290BD082294D
:103B000003D199F80000012805D09AF80000012897
:103B100011D1302923D089A000F016FA306800F0C6
:103B200035FA3068894900F5967030600968884236
:103B300001D187483060874E8749306809688842DC
:103B400063D086A000F000FA3168887820280DD074
:103B5000902825D0D02838D0302846D04BE082A0FD
:103B600000F0F2F98AA000F0EFF9D7E748790628CB
:103B700014D2DFE800F003090B0D0F1185A000F04F
:103B8000E3F989F8007036E087A00EE091A00CE020
:103B90009CA00AE0A5A008E0AFA006E0B6A004E063
:103BA000887930B1012804D0BCA000F0CDF92C7088
:103BB00021E0C0A000F0C8F98AF8007088F8004041
:103BC000FFF710F8FEF784FF15E0BDA000F0BCF988
:103BD00098F80010012905D00DD988F80040FFF7AA
:103BE00001F808E088F8004005E0B9A000F0ACF961
:103BF0003068FEF7EFFA3068BA4900F59670306029
:103C00000968884201D1B8483060B84DB848296881
:103C1000006881423FF464AFB6A0891C00F094F9BB
:103C2000B74E3068FCF7D8FC024628683168801C23
:103C3000FCF7A6FC60B37068FCF7CEFC024628686F
:103C40007168801CFCF79CFC50B3B068FCF7C4FCA6
:103C500002462868B168801CFCF792FC60B3F068EB
:103C6000FCF7BAFC02462868F168801CFCF788FC67
:103C700028B3A4A000F068F92868A54900F596705B
:103C80002860096888427FF42BAFA2482860FCE6D0
:103C9000FEF7E4F90020FEF727FE00239EA206E0CF
:103CA000FEF7D4F90020FEF71FFE00239EA200219C
:103CB0000846FEF766FDDFE7FEF70AFFDCE70021B6
:103CC0004FF08040FFF773F8D6E700003D0000207A
:103CD0003E0000203C00002080000020B7FECEF116
:103CE000C6F7D7B4CCACD2ECB3A30000D0E8D2AACC
:103CF000C1ACBDD3B7FECEF1C6F70D0A000000007F
:103D000000080040000400409000002058190020E6
:103D1000BDA8C1A2544350C1ACBDD3B3C9B9A60D0F
:103D20000A000000B7FECEF1C6F7D7B4CCACD5FD83
:103D3000B3A30000500000204C000020B7A2CBCD60
:103D4000CAFDBEDD3A307825780D0A005400002007
:103D50000C0900204400002040000020BDD3CAD53B
:103D6000B5BDCAFDBEDD3A00B7A2CBCDCAFDBEDDF2
:103D70003A30782578A3ACB5A5C6ACBBFACAFDBE6F
:103D8000DDCDC6CBCDD6C1B7FECEF1C6F70D0A004C
:103D90000D0A0000434F4E4E454354B1A8CEC4B364
:103DA000C9B9A60D0A000000C1ACBDD3D2D1BEDC9A
:103DB000BEF8A3ACB2BBD6A7B3D6B5C4D0ADD2E9DA
:103DC000B0E6B1BEA3ACD7BCB1B8D6D8C6F40D0A24
:103DD00000000000C1ACBDD3D2D1BEDCBEF8A3ACA4
:103DE000B2BBBACFB8F1B5C4BFCDBBA7B6CBB1EAB1
:103DF000CAB6B7FBA3ACD7BCB1B8D6D8C6F40D0AC7
:103E000000000000C1ACBDD3D2D1BEDCBEF8A3AC73
:103E1000B7FECEF1B6CBB2BBBFC9D3C3A3ACD7BC40
:103E2000B1B8D6D8C6F40D0A00000000C1ACBDD3AD
:103E3000D2D1BEDCBEF8A3ACCEDED0A7B5C4D3C30E
:103E4000BBA7C3FBBBF2C3DCC2EBA3ACD7BCB1B80E
:103E5000D6D8C6F40D0A0000C1ACBDD3D2D1BEDCA9
:103E6000BEF8A3ACCEB4CADAC8A8A3ACD7BCB1B86C
:103E7000D6D8C6F40D0A0000C1ACBDD3D2D1BEDC89
:103E8000BEF8A3ACCEB4D6AAD7B4CCACA3ACD7BC46
:103E9000B1B8D6D8C6F40D0A00000000B6A9D4C443
:103EA000CAA7B0DCA3ACD7BCB1B8D6D8C6F40D0A4B
:103EB00000000000B6A9D4C4B3C9B9A60D0A000019
:103EC00050494E47B1A8CEC4BBD8B8B40D0A0000C3
:103ED000B7FECEF1C6F7B5C8BCB630CDC6CBCD0D5A
:103EE0000A00000048000020300300205C00002091
:103EF00058000020C3FCC1EE3A25730D0A000000F3
:103F000000000020CEB4D6AAD6B8C1EE0D0A00003B
:103F100060000020E80E0020B5C6D7B4CCAC3A2033
:103F2000D2D1BFAA00000000B5C6D7B4CCAC3A20AD
:103F3000CEB4BFAA000000000346012000E05843B1
:103F4000491EC9B2FBD270470FB40E4870B505AA1E
:103F50000499FCF7B1F90B48FCF73EFB0A4A1188BB
:103F60004906FCD5084D0021064C2D1D05E0635C7B
:103F70002B8013885B06FCD5491C8142F7D370BCAB
:103F80005DF814FB581800200038014030B50B4A8A
:103F900011884906FCD5094C0121241D06E043186F
:103FA0005B78238013885B06FCD5491C4378057831
:103FB00003EB05238B42F2DA30BD000000440040E1
:103FC0000FB40E4870B505AA0499FCF775F90B48B3
:103FD000FCF702FB0A4A11884906FCD5084D00216E
:103FE000064C2D1D05E0635C2B8013885B06FCD519
:103FF000491C8142F7D370BC5DF814FB581D0020AA
:104000000044004010B500290AD00878002807D0E5
:1040100005487844FDF736F9002801D0002010BD8E
:104020000248784410BD00006E07000066070000DB
:1040300010B500290AD00878002807D00548784430
:10404000FDF720F9002801D0002010BD0248784477
:1040500010BD00005E07000056070000FCF7B5BE6B
:104060000000000000000000000000000000000050
:10407000000000F8000000000000003330000000E5
:1040800000100C06100C06000000000000000000EC
:1040900040C07840C0784000043F04043F0404005E
:1040A000007088FC08300000001820FF211E00006E
:1040B000F008F000E018000000211C031E211E0083
:1040C00000F00888700000001E2123241927211009
:1040D00010160E00000000000000000000000000AC
:1040E000000000E018040200000000071820400053
:1040F00000020418E0000000004020180700000043
:10410000404080F0804040000202010F01020200A6
:10411000000000F0000000000101011F010101008A
:10412000000000000000000080B0700000000000EF
:104130000000000000000000000101010101010178
:10414000000000000000000000303000000000000F
:1041500000000000806018040060180601000000E4
:1041600000E010080810E000000F102020100F00E1
:10417000001010F8000000000020203F2020000068
:1041800000700808088870000030282422213000C0
:1041900000300888884830000018202020110E00C8
:1041A0000000C02010F8000000070424243F240071
:1041B00000F80888880808000019212020110E0046
:1041C00000E0108888180000000F112020110E0058
:1041D00000380808C83808000000003F0000000050
:1041E0000070880808887000001C222121221C0011
:1041F00000E010080810E0000000312222110F003A
:10420000000000C0C00000000000003030000000CE
:10421000000000800000000000008060000000003E
:104220000000804020100800000102040810200057
:1042300040404040404040000404040404040400A2
:104240000008102040800000002010080402010037
:10425000007048080808F000000000303601000037
:10426000C030C828E810E0000718272423140B00EA
:104270000000C038E0000000203C23020227382064
:1042800008F8888888700000203F202020110E0048
:10429000C03008080808380007182020201008003F
:1042A00008F808080810E000203F202020100F0028
:1042B00008F88888E8081000203F202023201800F4
:1042C00008F88888E8081000203F2000030000005C
:1042D000C03008080838000007182020221E0200FD
:1042E00008F808000008F808203F210101213F20BC
:1042F000000808F8080800000020203F20200000E7
:1043000000000808F8080800C08080807F000000D6
:1043100008F888C028180800203F2001263820000F
:1043200008F8080000000000203F20202020300076
:1043300008F8F800F8F80800203F003F003F200090
:1043400008F830C00008F808203F200007183F0098
:10435000E01008080810E0000F10202020100F00C7
:1043600008F808080808F000203F210101010000BA
:10437000E01008080810E0000F18242438504F00FF
:1043800008F8888888887000203F2000030C3020BF
:1043900000708808080838000038202121221C00FD
:1043A000180808F8080818000000203F2000000046
:1043B00008F808000008F808001F202020201F002F
:1043C0000878880000C83808000007380E0100008F
:1043D000F80800F80008F800033C0700073C030059
:1043E000081868808068180820302C03032C3020BF
:1043F0000838C800C83808000000203F200000002E
:1044000010080808C8380800203826212020180085
:10441000000000FE020202000000007F4040400059
:10442000000C30C000000000000000010638C00091
:1044300000020202FE000000004040407F00000039
:10444000000004020202040000000000000000005E
:10445000000000000000000080808080808080805C
:104460000002020400000000000000000000000044
:1044700000008080808000000019242222223F203A
:1044800008F8008080000000003F112020110E007D
:104490000000008080800000000E1120202011000C
:1044A000000000808088F800000E112020103F20BE
:1044B0000000808080800000001F22222222130042
:1044C000008080F0888888180020203F202000008D
:1044D0000000808080808000006B94949493600042
:1044E00008F8008080800000203F210000203F204D
:1044F00000809898000000000020203F202000004D
:10450000000000809898000000C08080807F00003C
:1045100008F8000080808000203F24022D30200019
:10452000000808F8000000000020203F20200000C4
:104530008080808080808000203F20003F20003FDE
:104540008080008080800000203F210000203F20EC
:104550000000808080800000001F202020201F009D
:10456000808000808000000080FFA12020110E00CC
:104570000000008080808000000E112020A0FF80BD
:10458000808080008080800020203F21200001006A
:1045900000008080808080000033242424241900BF
:1045A000008080E0808000000000001F20200000CC
:1045B0008080000000808000001F202020103F200D
:1045C000808080000080808000010E30080601009D
:1045D00080800080008080800F300C030C300F0042
:1045E00000808000808080000020312E0E3120006D
:1045F000808080000080808080818E70180601009D
:1046000000808080808080000021302C22213000BA
:1046100000000000807C020200000000003F4040DB
:1046200000000000FF00000000000000FF0000008C
:104630000002027C800000000040403F00000000BB
:104640000006010102020404000000000000000056
:10465000040000080000000000000002000100004B
:104660001000000000000000000000003031323374
:104670003435363738394142434445464030580096
:1046800030313233343536373839616263646566C8
:104690004030780002400000000000A00000000050
:1046A00005400000000000C8000000000C400000B1
:1046B0000000409C00000000194000000020BCBE2B
:1046C0000000000034400000BFC91B8E0000000441
:1046D000B5400000504BCFD06607E2CF010000008C
:1046E0006C4100003E8251AADFEEA73401000000B9
:1046F000D9420000DCB5A0E23A301F97FFFFFFFF70
:10470000B4450000FD25A0C8E9A3C14FFFFFFFFF8E
:10471000FF3F00000000008000000000FF3F00009D
:1047200000000080000000004C414D503030326FDE
:1047300066660000444854434F4E54524F4C6F66D7
:10474000660000004C414D503030326F6E0000006A
:10475000444854434F4E54524F4C6F6E000000007B
:10476000AC480008000000203003000028010008C9
:10477000F04A00083003002088240000840100086B
:104780001C00000043000000F8FFFFFF0C000000C9
:104790000E0000000F0000002E00000010010000BD
:1047A00043000000F8FFFFFF004040404040404011
:1047B00040404141414141404040404040404040F4
:1047C0004040404040404040400502020202020298
:1047D00002020202020202020220202020202020E7
:1047E00020202002020202020202909090909090FB
:1047F00010101010101010101010101010101010B9
:10480000101010100202020202028888888888882C
:104810000808080808080808080808080808080818
:104820000808080802020202400000000000000020
:104830000000000000000000000000000000000078
:104840000000000000000000000000000000000068
:104850000000000000000000000000000000000058
:104860000000000000000000000000000000000048
:104870000000000000000000000000000000000038
:104880000000000000000000000000000000000028
:104890000000000000000000000000000000000018
:1048A0000000000000000000000000001344471B4F
:1048B0000828041A50041A34041184A24A04680D0A
:1048C000010203040607080902040608106914011E
:1048D0005C13CEC2251060028C2BFE920132FE18B2
:1048E0000A04047E01407E42427E0214427E404B16
:1048F000CAAA2349227923100C4448507F40407FA4
:104900005048444033B6C82809FC242424FC2526FA
:1049100024081204101040308F80844C5525252522
:10492000554C8080802AB73816FE222222FE27FEB0
:10493000828292A29E100880601F0242827F10082D
:10494000FF402F102C438033CEF1400B90884C5702
:10495000A42454548C84180801018042221A072789
:1049600016423E01010113C6F71C80809E86100A84
:104970009EE0809EB2D2929E8010080808F4949225
:1049800092F1100801F2929494F8081BCEB4232AF5
:1049900088013AFF06197C1010202010080402013B
:1049A000FF0102040810202033D2D15BE2820129EA
:1049B00099317B3F4001227813C1AC15404042CC75
:1049C000200B0444645C47F4444444041D40201F0D
:1049D000200A2C44447F051113BDD3181010101069
:1049E000FF1050445465C644645444402E100E8257
:1049F0007F0182824A562322524E820213B5C61389
:104A000080701DFF201004012AFC0519F51D1807F0
:104A100008304D53807F13BFAA2A8085498B190423
:104A20002280558040300F52FF33B9D8300C10111E
:104A3000161010F010101413101010818141412134
:104A4000110D030D11214141818113A1E6280906B1
:104A50000909E6F80C04020153041E3D071F30202B
:104A6000D11A203423D7B419791BFF20011905145A
:104A7000222C201E04040201FF6D10080E010618EE
:104A800020408023CCAC180D0484844424548F141B
:104A900024448484F4234139100C3C4040424C406F
:104AA000407004093133D2EC5B7E92011C9E80E0A1
:104AB000552E8848281E08012AFE051123D5FD1C05
:104AC0000202C28749D51A02ED5C40407F042901E9
:104AD0001113B3A33010201808EAACA8A8AFA8A8F7
:104AE000ACEA0828182A3EBA4EFF02021222BE1172
:040000050800027578
:00000001FF
