:020000040800F2
:100000006020002001010008AF120008310D000837
:10001000AD120008CD010008AD1500080000000079
:10002000000000000000000000000000991300081C
:10003000CF01000800000000E31200089B13000835
:100040001B0100081B0100081B0100081B01000820
:100050001B0100081B0100081B0100081B01000810
:100060001B0100081B0100081B0100081B01000800
:100070001B0100081B0100081B0100081B010008F0
:100080001B0100081B0100081B0100081B010008E0
:100090001B0100081B0100081B0100081B010008D0
:1000A0001B0100081B0100081B0100081B010008C0
:1000B0001B0100081B0100081B0100081B010008B0
:1000C0001B0100081B0100081B0100081B010008A0
:1000D0001B01000801140008611400081B0100083E
:1000E0001B0100081B0100081B010008DFF80CD0F1
:1000F00000F05AF800480047911B000860200020DB
:100100000648804706480047FEE7FEE7FEE7FEE7B1
:10011000FEE7FEE7FEE7FEE7FEE7FEE7FD13000869
:10012000ED000008D2B201E000F8012B491EFBD21D
:1001300070470022F6E710B513460A4604461946F2
:10014000FFF7F0FF204610BD30B505462A460B46A6
:1001500012F8010B13F8014B08B1A042F8D01CB102
:10016000002802D06D1CF1E7284630BD421C10F873
:10017000011B0029FBD1801A704730B50B460146A0
:1001800000202022012409E021FA02F59D4205D336
:1001900003FA02F5491B04FA02F52844151EA2F1E0
:1001A0000102F1DC30BD0000064C074D06E0E068BE
:1001B00040F0010394E8070098471034AC42F6D3AE
:1001C000FFF798FF1C1C00083C1C0008FEE7704766
:1001D00070B5002401221021124800F0A3FA12A0E9
:1001E00001F088FB4FF4FA6000F09AF94FF4FA75C9
:1001F000214612A001F07EFB2B46002218A119A077
:1002000000F048F828B1214617A001F073FB012047
:1002100070BD00F04BF9641CE4B20A2CE8D3002056
:1002200070BD0000000801400D0A415420E6B58B66
:10023000E8AF952E2E2E2E2E0D0A00000D0A4154E9
:100240002054657374696E67206672657175656E9A
:1002500063793A2025642E2E2E2E2E2E0D0A0000B4
:100260004F4B0000415400000D0A41542054657367
:10027000742073746172746564207375636365734D
:100280007366756C6C793A2025642E2E2E2E2E2ED8
:100290000D0A00002DE9F0411D4C0E461F46B4F832
:1002A000001415466FF30E01A4F80014024619A1BC
:1002B0001A4801F005F956EA050025D0384600F045
:1002C0002FF9B4F800140020C1F30E016054214648
:1002D00013A001F00FFBB4F800046FF30E00A4F8B4
:1002E0000004B4F8000420F40040A4F800042EB187
:1002F000314625B12046FFF727FF28B92946044893
:10030000FFF722FF002800D00120BDE8F0810000A7
:100310005800002025730D0A000000000044004032
:100320002573000000B585B008B1012200E000226D
:1003300006A1684601F0EEFA4FF4FA73002207A115
:100340006846FFF7A7FF05B000BD000041542B43EE
:1003500049504D55583D2564000000004F4B0000AA
:1003600000B59FB00B46024606A1684601F0D2FADE
:1003700041F28833002208A16846FFF78BFF1FB0C7
:1003800000BD000041542B43574A41503D22257384
:10039000222C2225732200004F4B0000F0B5B9B08B
:1003A0000F4606461D461446642101A8FFF7C1FE0C
:1003B00016B1012E0BD103E03B4610A2009402E0DF
:1003C0003B460FA200940FA101A801F0A3FA052D4E
:1003D00006D201AB2A460FA11AA801F09BFA04E04D
:1003E00001AA11A11AA801F095FA4FF47A6312A29A
:1003F00015A11AA8FFF74EFF39B0F0BD54435000C5
:1004000055445000222573222C222573222C25735B
:100410000000000041542B43495053544152543D75
:1004200025642C257300000041542B43495053543C
:100430004152543D25730000414C524541592043DF
:100440004F4E4E45435400004F4B000040F6C4133E
:1004500028B1012807D0022809D00020704706A241
:1004600008A109A006E004A206A10AA002E002A2D7
:1004700004A10BA0FFF70EBF6E6F206368616E676B
:10048000650000004F4B000041542B43574D4F4433
:10049000453D310041542B43574D4F44453D3200BB
:1004A00041542B43574D4F44453D330010B5084C44
:1004B00000221021204600F035F94FF4FA7000F0C8
:1004C0002FF820460122BDE81040102100F02AB983
:1004D0000008014010B54FF4FA742346002207A12A
:1004E00007A0FFF7D7FE002807D02346BDE810403D
:1004F00007A202A107A0FFF7CDBE10BD4F4B000021
:1005000041542B4349504D4F44453D3100000000BC
:100510003E00000041542B43495053454E440000D7
:1005200070B5044600F004F90546601C02D004488A
:100530000078044400F0FCF8401BA042FAD370BDE0
:10054000000000202DE9F84FDFF8B891002409F1F0
:10055000040A0AF1040B23460F270BF1040EC9E02D
:100560000125A5402A40AA427DD1674ED1F804C09A
:10057000ACEB0608B44532D014DCBCF1030F3AD022
:1005800009DCBCF1000F2AD0BCF1010F1CD0BCF17A
:10059000020F31D11DE0BCF1110F17D0BCF1120FC9
:1005A0002AD119E0B8F5881F19D006DCB8F5803FCC
:1005B00015D0B8F5801F1FD111E0B8F5001F0ED07F
:1005C000B8F5041F18D10AE0CB6815E0CB681B1DF5
:1005D00012E0CB6808330FE0CB680C330CE08B687B
:1005E0002BB1012B4FF0080303D0456104E0042335
:1005F00002E0056100E00023FF2A01D8064601E081
:1006000000F104064FEA840501D9A5F12005D6F8CA
:10061000008007FA05FC28EA0C0803FA05F548EA09
:100620000508C6F800804D68ED0062D5374DAE690B
:1006300046F00106AE61AD6924F0030605F0010540
:100640000095334D06EB050CDCF80850A607360F75
:1006500007FA06F825EA0805DFF8B880404503D117
:100660004FF0000817E044E0DFF8AC80404502D1CD
:100670004FF001080FE0DFF8A480404502D14FF0B1
:10068000020808E0DFF89880404502D14FF00308E7
:1006900001E04FF0040808FA06F848EA0508CCF82B
:1006A00008804D68D9F80060ED034D4601D516432A
:1006B00000E096432E604D68DAF80060AD035546C1
:1006C00001D5164300E096432E604D68DBF80060CC
:1006D000ED025D4601D5164300E096432E604D685D
:1006E000DEF80060AD02754601D5164300E0964382
:1006F0002E60641C0D682A46E5407FF431AFBDE8EA
:10070000F88F0000000401400000111000100240AA
:100710000000014000080140000C014000100140B1
:10072000001401400AB1016170470904FBE70000B1
:10073000014880687047000000000020024881687E
:10074000027811448160704700000020074810B50E
:10075000016841F010010160032000F067F80F20EC
:1007600000F006F800F024F8002010BD0020024040
:1007700070B50D4D04464FF47A712878B1FBF0F056
:100780000A490968B1FBF0F000F0BEFA48B9102C34
:1007900007D200222146501E00F028F800206C608D
:1007A00070BD012070BD0000000000200C00002082
:1007B0000C4808B5816941F001018161816901F04E
:1007C00001010091C16941F08051C161C06900F02F
:1007D000805000900448416821F0E06141F00071D0
:1007E000416008BD0010024000000140F0B40E4B13
:1007F0001B680C46C3F30223C3F10705042D00D97F
:100800000425191D072901D2002300E0DB1E012663
:1008100006FA05F1491E214099409E40761E164079
:100820003143F0BC01F0A7B80CED00E0064900F040
:10083000070208684FF6FF03184040EA0220034A07
:1008400010430860704700000CED00E00000FA055E
:100850002DE9F0470F46050061D0434E306800F0A7
:100860000700B84209D2306820F0070038433060F2
:10087000306800F00700B84251D128683B4C81072E
:1008800012D5400703D5606840F4E06060602878C6
:10089000000703D5606840F4605060606068A96834
:1008A00020F0F000084360602878C00728D068680E
:1008B000012810D02168022810D0890700292EDADB
:1008C000616821F0030101436160FFF731FF804659
:1008D00041F288390DE021688903EFE78901EDE7EE
:1008E000FFF726FFA0EB0801494502D90320BDE828
:1008F000F0876068696800F00C00B0EB810FEFD101
:10090000306800F00700B8420BD9306820F00700CB
:1009100038433060306800F00700B84201D0012051
:10092000E5E72878400705D56068E96820F4E060CD
:10093000084360602878000706D56068296920F4BC
:10094000605040EAC100606000F018F86168084A31
:10095000C1F30311515CC8400649086006480068AD
:10096000FFF706FF0020C2E700200240001002400F
:10097000041C00080C0000200400002012A185B017
:100980000FC98DE80F0014A0144A00680490516844
:10099000134801F00C03042B10D0082B0ED1C1F327
:1009A0008343C9031DF803000AD5516804AAC1F3A3
:1009B0004041515C0A4A5043B0FBF1F005B070472A
:1009C00008494843FAE7000002030405060708093E
:1009D0000A0B0C0D0E0F1010010200000010024057
:1009E00000127A0000093D002DE9F84F040070D094
:1009F0002078C04DC00749D06868C0F38100012845
:100A000007D06868C0F38100022809D16868C00374
:100A100006D52868800339D560680028E7D035E01E
:100A20006068B0F5803F0BD010B1B0F5A02F11D0A9
:100A3000286820F480302860286820F4802002E0B4
:100A4000286840F480302860606890B1FFF770FE3D
:100A500006460AE0286840F480202860F0E700BFDE
:100A6000FFF766FE801B642873D828688003F7D5DB
:100A70000CE0FFF75DFE064605E000BFFFF758FEFD
:100A8000801B6428F0D828688003F7D420789A4E19
:100A900080074FF001094FF0000839D5686810F061
:100AA0000C0F07D06868C0F38100022809D168687C
:100AB000C00306D42868800714D52069012808D10E
:100AC00010E02069B0B1C6F80090FFF731FE07468C
:100AD00005E00AE1FFF72CFEC01B0228C4D82868F5
:100AE0008007F7D52868616920F0F80040EAC10066
:100AF00028600DE0C6F80080FFF71AFE074604E004
:100B0000FFF716FEC01B022823D828688007F7D4F9
:100B1000207800072CD57948A169D9B1C0F8009098
:100B2000FFF706FE074604E0FFF702FEC01B02289F
:100B30000FD8686A8007F7D571484FF4FA510068FA
:100B4000B0FBF1F0009000BF0098411E0091FAD276
:100B50000EE080E0C0F80080FFF7EAFD074604E001
:100B6000FFF7E6FDC01B022875D8686A8007F7D436
:100B70002078400760D5E8690027C00008D4E869FC
:100B800040F08050E861E869012700F08050009053
:100B90005C480168C90513D40168834641F480713B
:100BA0000160FFF7C5FD824606E000BFFFF7C0FD0C
:100BB000A0EB0A0064284ED8DBF80000C005F5D58C
:100BC000E06801280AD008B1052813D0286A20F06F
:100BD00001002862286A20F0040002E0286A40F040
:100BE00001002862E06841F2883B98B1FFF7A0FD60
:100BF00082460BE0286A40F004002862EEE700BF5E
:100C0000FFF796FDA0EB0A0159455AD8286A8007DC
:100C1000F6D50CE0FFF78CFD824605E0FFF788FD76
:100C2000A0EB0A0159454CD8286A8007F6D41FB1B9
:100C3000E86920F08050E861E06988B36968C1F331
:100C40008101022944D00228C6F8608004D0FFF751
:100C50006FFD044638E034E0FFF76AFD074604E024
:100C6000FFF766FDC01B02282BD828688001F7D447
:100C7000206AB0F5803F05D16868A16820F4003093
:100C800008436860D4E908010843696821F47411D5
:100C900008436860C6F86090FFF74AFD044606E026
:100CA00025E000BFFFF744FD001B022809D8286893
:100CB0008001F7D51BE000BFFFF73AFD001B0228BB
:100CC00002D90320BDE8F88F28688001F4D40EE033
:100CD0000128F7D06868226A00F48031914204D17B
:100CE000616A00F47010884201D00120EAE7002018
:100CF000E8E7000000100240000042428004424247
:100D00000C0000200070004010B5401EB0F1807F44
:100D100001D3012010BD4FF0E02460610F21601766
:100D200000F029FE0020A06107202061002010BDF6
:100D3000FEE7000010B580212948FFF7FAF929A243
:100D40002BA1274800F0E6FD2548FFF70FFA294CB4
:100D50008021A06222484030FFF7EBF9204826A20C
:100D600023A1403000F0D6FD1D484030FFF7FEF9CA
:100D7000E0621B4880218030FFF7DBF918481EA293
:100D80001BA1803000F0C6FD15488030FFF7EEF95A
:100D9000206313488021C030FFF7CBF9104818A218
:100DA00013A1C03000F0B6FD19A211A1194800F03E
:100DB000B1FD184A18A0A2F1400100F09BFD0849BE
:100DC0001BA000F097FD06491EA0403100F092FDE7
:100DD0000349BDE8104080311FA000F08BBD00002A
:100DE000F01900206D717474785F303000000000DD
:100DF0002573000014000020657370383236360009
:100E00007777772E62696164752E636F6D000000DD
:100E100038300000F01A0020E69C8D20E58AA120E1
:100E2000E599A8EFBC9A25733A25730D0A000000D6
:100E3000E5AEA2E688B7E7ABAF4944EFBC9A2573AD
:100E40000D0A0000E794A820E688B720E5908DEF12
:100E5000BC9A25730D0A0000E5AF8620202020E70C
:100E6000A081EFBC9A25730D0A000000044908B563
:100E70008A6902438A6189690140009108BD0000C6
:100E800000100240F0B50A68C2F30F2595FAA5F2EA
:100E9000B2FA82F369E001229A402A4264D0082B18
:100EA00003D240F201129A4006E0A3F108024FF08B
:100EB0000114944044F080624C68082C0BD10C69FA
:100EC000C668170A97FAA7F7B7FA87F726EA12262D
:100ED000BC402643C66092FAA2F700EB1264B7FA50
:100EE00087F74FEA870C0F27266807FA0CF7BE43EF
:100EF00092FAA2F7D1F804E0B7FA87F7BF000EFA2A
:100F000007FE46EA0E0626604F68012F01D0092F22
:100F10002AD192FAA2F7B7FA87F74FEA870C03278C
:100F200007FA0CF7BE4392FAA2F7B7FA87F7D1F89F
:100F300008E0BF000EFA07FE92FAA2FC46EA0E068F
:100F4000BCFA8CFC4FEA8C0E4FF0040C26600CFAB5
:100F50000EFC92FAA2F2B2FA82F2CF68920026EA6E
:100F60000C0697403E4326605B1C35FA03F292D193
:100F70000020F0BD00B5034600F0DEF9186000F077
:100F8000B1F9586000F0BCF99860586800F0C6F9F3
:100F9000D86000BD2DE9FF410446C0680D4601261A
:100FA000C0F34030F0BBE9686868E268084329692B
:100FB00041F20C639A4311430843E060A868216939
:100FC00021F44051014321616869616921F4407154
:100FD000014361616846FFF7CDFF2448844201D197
:100FE000039806E02248844202D02248844238D145
:100FF0000298B8B12A68AAB100EBC00101EB001158
:101000009200B1FBF2F36420B3FBF0F3B1FBF2F515
:101010006FF018077B43002605EB8305322303EBB3
:10102000051500E01DE0B1FBF2F7B5FBF0F5B7FBED
:10103000F0F705F0F00505EB0715B1FBF2F7B1FB92
:10104000F2F1B1FBF0F16FF01802514307EB8101AF
:1010500003EB0111B1FBF0F000F00F00284480B267
:10106000A06004B03046BDE8F081000000380140C7
:1010700000440040004800402DE9F04186B00024C3
:1010800020480094019402940394816941F0100176
:101090008161816901F010010491816941F02001B1
:1010A0008161816901F020010491816941F00401AD
:1010B00081618069144F00F004004FF400550490E2
:1010C000002229463846FFF72DFBDFF8408000223A
:1010D00030214046FFF726FB0095022601250396A6
:1010E000CDE9015469463846FFF72CFA3020CDE9A6
:1010F0000005CDE9024669464046FFF723FA06B0EF
:10110000BDE8F081001002400010014000080140DD
:1011100030B58DB01C216846FFF70BF8142107A8E5
:10112000FFF707F84FF48040FFF7A0FE0420FFF719
:101130009DFE244807900920089003200024CDE953
:101140000904214D07A92846FFF79CFE1F48079078
:101150000420089007A92846FFF794FE1C48006861
:101160000022C0F30220114600F0A2F8014625201B
:1011700000F0F1FB252000F0E1FB4FF4E130CDE978
:1011800000040C200294CDE9034005940694114C10
:1011900069462046FFF7FEFE206920F4904020615A
:1011A000606920F02A006061E06840F40050E0606F
:1011B000E06840F02000E060E06840F01000E0608F
:1011C0000DB030BD02000204000801400400040418
:1011D0000CED00E00038014030B58DB01C216846B0
:1011E000FEF7A7FF142107A8FEF7A3FF2B48C1694C
:1011F00041F40031C161C06900F400300C9004205A
:10120000FFF734FE40F204400790092008900320C5
:101210000024CDE90904224D07A92846FFF732FE34
:1012200040F6080007900420089007A92846FFF719
:1012300029FE1C4800680022C0F30220114600F07D
:1012400037F80146262000F086FB262000F076FBCA
:101250004FF4E130CDE900040C200294CDE90340C5
:1012600005940694104C69462046FFF793FE2069CA
:1012700020F490402061606920F02A006061E068FD
:1012800040F40050E060E06840F02000E060E0687A
:1012900040F01000E0600DB030BD000000100240D2
:1012A000000801400CED00E000440040FEE7FEE7CE
:1012B00030B500F00703C3F10704042C00D904245F
:1012C000181D072801D2002300E0DB1E012505FAC6
:1012D00004F0401E084098409D406D1E1540284374
:1012E00030BD704704494968044A01F0F00109091A
:1012F000515CC8407047000000100240041C000808
:1013000004494968044A01F4E06102EB11210978BB
:10131000C840704700100240141C00080449496886
:10132000044A01F4605102EBD1210978C8407047AA
:1013300000100240141C00080648406810F00C0120
:10134000054805D0042903D0082901D100F006B8CA
:10135000704700000010024000127A000B484168FC
:1013600011F480320A4909D0B2F5803F06D14168B4
:10137000084AC1F34041491CB2FBF1F14068022226
:1013800000F4701002EB9040484370470010024098
:1013900000093D0000127A007047FFF7CFB930B561
:1013A0008FB028216846FEF7C4FE14210AA8FEF774
:1013B000C0FE01210804CDE900100024029402259A
:1013C0000491CDE907504FF4E01009906846FFF70B
:1013D0000BFB08B172B6FEE70F20CDE90A054FF40A
:1013E0008060CDE90C4002210AA80E94FFF730FA84
:1013F000002801D072B6FEE70FB030BD7047000084
:1014000030B515490868C0F340121448B2B94A68AB
:10141000D3B2B0F8002440F2FF34C2F30E02A2426D
:101420000CD2B0F80024B0F80044C2F30E028518C4
:10143000521C62F30E04A0F800442B700A68C2F339
:101440000012002A06D0B0F8002442F40042A0F8AE
:101450000024486830BD0000003801405A040020D4
:1014600030B515490868C0F340121448B2B14A6853
:10147000D3B2B0F8002440F2FF34C2F30E02A2420D
:101480000CD2B0F80024B0F80044C2F30E02851864
:10149000521C62F30E04A0F800442B700A68C2F3D9
:1014A0000012002A06D0B0F8002442F40042A0F84E
:1014B0000024486830BD000000440040580000206F
:1014C0000FB42DE9FF470EAA374E4FF000092AE06E
:1014D0005C2B02D0252B0CD009E0491C0D910B7818
:1014E0006E2B03D0722B17D1337800E073784360F2
:1014F00012E0491C0D910B78642B1CD0732B0BD17F
:1015000008CA06E044600468C4F3C014002CFAD092
:101510005B1C1C78002CF5D1491C0D910168C1F3AE
:10152000C0110029FAD00D990B78002BD0D1BDE85D
:10153000FF075DF814FB02CA00276D46002921D081
:1015400007DA4FF02D038DF80030C1F1000105F1ED
:10155000010542F210744FF00A0C00BF91FBF4F346
:1015600053EA070806D003F1300705F8017B03FBB7
:101570001411012794FBFCF4002CEFDC85F800909B
:1015800069460CE030218DF800108DF80190F7E7E6
:1015900043600368C3F3C013002BFAD0491C0B78D7
:1015A000002BF5D10D99B7E710000020FEE70000F1
:1015B00010B534A000F09EF9012220213748FFF732
:1015C000B1F8FEF705FE00283ED035A000F092F9F4
:1015D00037A000F08FF90020FEF738FF002838D040
:1015E0003DA000F087F941A000F084F947A14AA08E
:1015F000FEF7B6FE002831D049A000F07BF94FA0DD
:1016000000F078F90020FEF78DFE00282BD054A0C2
:1016100000F070F959A000F06DF905235F4A6049A8
:101620000020FEF7BBFE002822D05EA000F062F989
:1016300064A000F05FF9FEF74DFF00281DD06AA0FE
:1016400000F058F9002010BD70A000F053F90120FF
:1016500010BD76A000F04EF9022010BD7CA000F075
:1016600049F9032010BD84A000F044F9042010BD06
:101670008CA000F03FF9052010BD94A000F03AF9CD
:10168000062010BDE58786E5A487E4BDBFE883BDDD
:10169000E6A8A1E59D970D0A0000000000080140A2
:1016A000E4BDBFE883BDE68890E58A9F0D0A00008F
:1016B000E58786E5A487E9858DE7BDAEE5B7A5E4B6
:1016C000BD9CE6A8A1E5BC8F3A205354412E2E2E96
:1016D0002E2E2E0D0A000000E8AEBEE7BDAE53541C
:1016E00041E68890E58A9F0D0A000000E58786E5BF
:1016F000A487E8BF9EE68EA5E8B7AFE794B1E59969
:10170000A82E2E2E2E2E2E0D0A000000313233343C
:101710003536373800000000777574616F000000BF
:10172000E8BF9EE68EA5E8B7AFE794B1E599A8E6D5
:101730008890E58A9F5C720A00000000E58786E5D4
:10174000A487E585B3E997ADE5A49AE8B7AFE8BF0C
:101750009EE68EA52E2E2E2E2E2E0D0A00000000A7
:10176000E585B3E997ADE5A49AE8B7AFE8BF9EE693
:101770008EA5E68890E58A9F0D0A0000E58786E53C
:10178000A487E8BF9EE68EA5E69C8DE58AA1E59933
:10179000A8202E2E2E2E2E2E0D0A0000F01A00202C
:1017A000B01A0020E8BF9EE68EA5E69C8DE58AA1D2
:1017B000E599A8E68890E58A9F202E2E2E2E2E2EC3
:1017C0000D0A0000E58786E5A487E8BF9BE585A5AF
:1017D000E9808FE4BCA0E6A8A1E5BC8F202E2E2EC8
:1017E0002E2E2E0D0A000000E8BF9BE585A5E9809E
:1017F0008FE4BCA0E6A8A1E5BC8FE68890E58A9FAF
:101800002E2E2E2E2E2E0D0A00000000E4BDBFE865
:1018100083BDE5A4B1E8B4A5EFBC8CE58786E5A45B
:1018200087E9878DE590AF5C720A0000E8AEBEE7FD
:10183000BDAE535441E5A4B1E8B4A5EFBC8CE58737
:1018400086E5A487E9878DE590AF5C720A00000009
:10185000E8BF9EE68EA5E8B7AFE794B1E599A8E5A5
:10186000A4B1E8B4A5EFBC8CE58786E5A487E98739
:101870008DE590AF0D0A0000E585B3E997ADE5A4CD
:101880009AE8B7AFE8BF9EE68EA5E5A4B1E8B4A597
:10189000EFBC8CE58786E5A487E9878DE590AF5C92
:1018A000720A0000E8BF9EE68EA5E69C8DE58AA13F
:1018B000E599A8E5A4B1E8B4A5EFBC8CE58786E579
:1018C000A487E9878DE590AF0D0A0000E8BF9BE58E
:1018D00085A5E9808FE4BCA0E5A4B1E8B4A5EFBC80
:1018E0008CE58786E5A487E9878DE590AF5C720A71
:1018F000000000000FB4054B10B503A9044A02987C
:1019000000F058F810BC5DF814FB0000791B0008CB
:10191000540000200FB4084B10B504A902AA039884
:1019200000F048F8044602A9002000F01FF9204604
:1019300010BC5DF814FB00006D1B0008002809DBDB
:1019400000F01F02012191404009800000F1E020D9
:10195000C0F8001170470907090E002804DB00F1E8
:10196000E02080F80014704700F00F0000F1E02044
:1019700080F8141D70470907090E002804DB00F1E8
:10198000E02080F80014704700F00F0000F1E02024
:1019900080F8141D704702E008C8121F08C1002A11
:1019A000FAD170477047002001E001C1121F002AE0
:1019B000FBD170472DE9FF4F8BB09A460F46054685
:1019C000002606E025280BD052460D9990476D1C45
:1019D000761C28780028F5D10FB03046BDE8F08F8E
:1019E0000024A0460122604900E0044315F8013FAD
:1019F000203B02FA03F00842F7D128782E2817D1AD
:101A000015F8010F44F004042A280ED06FF02F02BD
:101A10002878A0F1300109290AD808EB880102EBE7
:101A2000410100EB01086D1CF2E757F8048B6D1CB7
:101A3000287869283ED006DC0028CDD063280BD05A
:101A4000642804D136E0732810D075284BD0524654
:101A50000D999047761C85E017F8040B8DF800006F
:101A600000208DF80100E946012003E057F8049BAF
:101A70004FF0FF3061074FF0000401D40AE0641C0E
:101A800044450DDA8442FADB19F804100029F6D136
:101A900006E0641C8442FCDB19F804100029F8D12C
:101AA000264404E019F8010B52460D999047641E34
:101AB000F8D257E001CF4FF00A0B002802DA40427B
:101AC0002D2102E0210504D52B218DF824100121C0
:101AD00003E0E10705D02021F7E70DF12009089187
:101AE0000CE00021F9E701CF4FF00A0BF9E7594666
:101AF000FEF743FB01F1300209F8012D0028F6D171
:101B0000ADEB090000F1200B600701D44FF0010894
:101B1000D84502DDA8EB0B0000E000208046002441
:101B200006E009A85246005D0D999047641C761C9A
:101B300008988442F5DB04E0302052460D99904726
:101B4000761CB8F10001A8F10108F5DC05E019F8F0
:101B5000010B52460D999047761CBBF10001ABF189
:101B6000010BF4DC6D1C34E7092801000A68531CE2
:101B70000B601070704700000449C2B24A600A68E6
:101B8000C2F3C012002AFAD07047000000380140AA
:101B9000FEF7DCFDFFF703FCFFF76EFAFFF7B8FA7C
:101BA000FFF71AFB0FA0FFF7A5FEFFF7C3F800BF72
:101BB000FFF7FEFC0028FBD1114D4FF47A764FF46D
:101BC00000543046FEF7ACFC002221462846FEF7C2
:101BD000A9FD3046FEF7A4FC012221462846FEF767
:101BE000A1FDEEE7E7A1ACE4BBB6E5889DE5A78BD8
:101BF000E58C96E5AE8CE688905C720A00000000E9
:101C00000010014000000000000000000102030479
:101C10000607080900000000010203043C1C00083C
:101C2000000000205800000096190008941C0008CD
:101C30005800002008200000A6190008010000003C
:101C400010000000000000000024F4000D0A000055
:101C50000000000000000000000000000000000084
:101C60000000000000000000000000000000000074
:101C70000000000000000000000000000000000064
:101C80000000000000000000000000000000000054
:041C90000000000050
:04000005080000ED02
:00000001FF
